:100000000C946C020C9494020C9494020C94940240
:100010000C9494020C9494020C9494020C94940208
:100020000C9494020C9494020C9494020C94D804B2
:100030000C9494020C9494020C9494020C949402E8
:100040000C9452040C9494020C9494020C94940218
:100050000C9494020C9494020C9494020C949402C8
:100060000C9494020C9494020101FF030101F70324
:100070006C00680000000000240027002A00000037
:100080000000250028002B000500893008023802F6
:100090004978681400002020202020476F6F6420DA
:1000A0006A6F622100175344001613780016131468
:1000B000001510200015201000540A03E181867FEE
:1000C0003E186D830F0F0E0183866033186DC319C0
:1000D0008F1803C38E6033186DE330CF1803C39EAF
:1000E000603630CDE360CF3006C79E7E3E30CDB364
:1000F00060CF300CC6F6603330D9B660CF33CFCC8A
:10010000F66061B0DB1E60CF30D86CE6C061B0DB5A
:100110001E618F19986CC6C063B19B0E330F0FB070
:1001200078C6FF7E1F1B061E0F40246FFFFFFFFFD8
:10013000FFFFFF6FFFFFFFFFFFFFFF688200A000D0
:100140002A20036EEEBEBEFBEAEBFF60088A002A9F
:10015000200A8B7BAEFBAFAFAEEEBB60A02AA20A3B
:1001600008200B7BBEEAEFFAEFAEEB6AA00028286E
:10017000A2A2836AFFBAFBEEBEFFBB6002AA000226
:1001800080280B7BFEEFAEFABAAEFB608000A8823F
:100190008A822B7BBEABFFFFFBBFEF6008ABFFFF8C
:1001A000FA000B7AEEBB77FFFBAEEB62228B24E307
:1001B000B8A2237AEAFF567B5EEEAB622A835577BC
:1001C000388AAB7BFFFB74639BBBAB6000A3FFFF74
:1001D000F880AB7BFAAFFFFFFBFAFB602220A02A7E
:1001E000200A2B6FBBFFBFABBFBAEB622A00002A0D
:1001F00080AA236AAEFBBEEAEFEFFF6A800A08001E
:100200000288036FEEBFFAEEEEBEAB6022880A8270
:100210008000AB7BEBBBFBABEEEFAF6888800AA83E
:100220002222A36EFEEAEEFBBFAAAF60028A202262
:1002300000A8A37FFFFFFFFFFFFFFB7FFFFFFFFF84
:10024000FFFFFB0000000000000000000500380177
:1002500068010000F6E8DBCFC3B8AEA49B928A82A7
:100260007B746E68625C57524E4945413E3A373462
:10027000312E2C29272523210A0A153A49676E6F4A
:100280007265006D560A0A504C454153452054553D
:10029000524E204F464620004C4F57204241545466
:1002A00045525921200003053F213F1208120A1030
:1002B0000A0E1C0E0C1E0C141A14161F161E131EEA
:1002C0001E1B1E1E1F1E3F213F3A2F3A173D173F90
:1002D000213F181F02040A041F0E04040E1F0A1FE8
:1002E0000A0E0E1F04110E2E252E2F2A2E26292926
:1002F000021F02081F08150E04040E150E15151B0B
:10030000151B040604040C04000000001700030081
:10031000031F0A1F16371A1904130A153A0003009F
:10032000000E11110E000A040A040E04003000042D
:1003300004040010001804031F111F121F101D15C4
:100340001711151F07041F17151D1F151D01011F6C
:100350001F151F17151F000A00003200040A110A9A
:100360000A0A110A040115020E11171E051E1F1597
:100370000A0E110A1F110E1F15111F05010E111D66
:100380001F041F111F1108100F1F041B1F10101F27
:10039000061F1E040F0E110E1F09060E112E1F053B
:1003A0001A121509011F011F101F0F180F1F0C1F14
:1003B0001B041B031C03191513001F110304181140
:1003C0001F000201022020200001020C121E1F1239
:1003D0000C0C12120C121F0C1A14041E05242A1ED7
:1003E0001F021C141D1020201D1F0814111F101E99
:1003F000041E1E021C0C120C3E0A040C123E1E04AB
:100400000214160A020F120E101E0E100E1E081EE7
:10041000120C1226281E322A26041E21001F00213B
:100420001E040102013F213F172B152010204C4FC5
:100430004144455200172B16201314000A4E6F201A
:1004400053442063617264206F720A6E6F204C4FB8
:10045000414445522E4845580A0A153A4578697470
:10046000001D20466C617368696E670A20206C6FFE
:10047000616465722E2E2E0A0A444F4E2754205472
:1004800055524E204F464621000000000023002612
:100490000029000404040404040404020202020209
:1004A0000203030303030301020408102040800138
:1004B00002040810200102040810200000000800B7
:1004C00002010000030407000000000000000045D6
:1004D000006801000000411811241FBECFEFD8E0D2
:1004E000DEBFCDBF11E0A0E0B1E0ECE0F5E302C07B
:1004F00005900D92AC31B107D9F727E0ACE1B1E03E
:1005000001C01D92A53AB207E1F712E0CCE6D2E0B5
:1005100004C02197FE010E94791ACB36D107C9F792
:100520000E9442120C94841A0C940000CF92DF9225
:10053000EF92FF920F931F93CF93DF936C017A0199
:100540008B01C0E0D0E0CE15DF0589F0D8016D91B8
:100550008D01D601ED91FC910190F081E02DC60155
:100560000995892B11F47E0102C02196ECCFC701B9
:10057000DF91CF911F910F91FF90EF90DF90CF907F
:100580000895BC0190910E059E31D8F4E2EDF4E09F
:1005900040E050E0292F30E04217530744F4A19186
:1005A000B191A617B70769F04F5F5F4FF5CF220FE4
:1005B000331FF901EE52FB4F718360839F5F90936D
:1005C0000E050895089580E090E008950E947F1A36
:1005D000833081F028F4813099F08230A1F00895C1
:1005E0008730A9F08830B9F08430D1F48091800050
:1005F0008F7D03C0809180008F7780938000089565
:1006000084B58F7702C084B58F7D84BD08958091B5
:10061000B0008F7703C08091B0008F7D8093B000D1
:1006200008951F93CF93DF93282F30E0F901E5540D
:10063000FB4F8491F901E955FB4FD491F901ED5637
:10064000FB4FC491CC23C9F0162F81110E94E80200
:10065000EC2FF0E0EE0FFF1FE258FF4FA591B49191
:100660008FB7F894111105C09C91ED2FE095E92307
:1006700002C0EC91ED2BEC938FBFDF91CF911F91D6
:100680000895CF93DF9390E0FC01E955FB4F24914F
:10069000FC01ED56FB4F8491882361F190E0880FB7
:1006A000991FFC01EC58FF4FC591D491FC01E25811
:1006B000FF4FA591B491611109C09FB7F89488814B
:1006C000209582238883EC912E230BC0623061F445
:1006D0009FB7F8943881822F809583238883EC918B
:1006E0002E2B2C939FBF06C08FB7F894E8812E2B3A
:1006F00028838FBFDF91CF9108951F93CF93DF930E
:10070000182FEB0161E00E944103209711F460E093
:1007100004C0CF3FD10539F461E0812FDF91CF9143
:100720001F910C941103E12FF0E0E554FB4FE4918D
:10073000E330F9F048F4E130B9F0E230A1F584B5E6
:10074000806284BDC8BD34C0E730E9F0E83019F1FB
:10075000E43049F580918000806280938000D093DE
:100760008B00C0938A0024C084B5806884BDC7BD57
:100770001FC080918000806880938000D0938900A2
:10078000C093880015C08091B00080688093B0004D
:10079000C093B3000DC08091B00080628093B00020
:1007A000C093B40005C0C038D1050CF0B5CFAFCFB1
:1007B000DF91CF911F9108958E3008F08E50877091
:1007C000806480937C0080917A00806480937A00BA
:1007D00080917A0086FDFCCF80917800209179008D
:1007E00090E0922B08953FB7F89480911105909175
:1007F0001205A0911305B091140526B5A89B05C05C
:100800002F3F19F00196A11DB11D3FBFBA2FA92F8F
:10081000982F8827820F911DA11DB11DBC01CD010C
:1008200042E0660F771F881F991F4A95D1F70895F8
:100830008F929F92AF92BF92CF92DF92EF92FF92F0
:100840006B017C010E94F3034B015C01C114D104D4
:10085000E104F104F1F00E94F303DC01CB018819FB
:100860009909AA09BB09883E9340A105B10570F317
:1008700021E0C21AD108E108F10888EE880E83E071
:10088000981EA11CB11CC114D104E104F10419F794
:10089000DDCFFF90EF90DF90CF90BF90AF909F9013
:1008A0008F9008951F920F920FB60F9211242F93DD
:1008B0003F938F939F93AF93BF9380911705909130
:1008C0001805A0911905B0911A053091100523E083
:1008D000230F2D3720F40196A11DB11D05C026E878
:1008E000230F0296A11DB11D2093100580931705BB
:1008F00090931805A0931905B0931A0580911105DE
:1009000090911205A0911305B09114050196A11DB7
:10091000B11D8093110590931205A0931305B09318
:100920001405BF91AF919F918F913F912F910F909F
:100930000FBE0F901F90189580911B07882319F008
:1009400080911D0701C080E08093B4000895CF938B
:10095000DF93EC011F8A1D8A1CA21BA2188E109225
:100960001D0710921C0710921B070E949C048CE428
:1009700092E09E878D871B8A1A8A81E0898389E0AD
:100980008E8B198E1B8E1D8EDF91CF910895FC01E9
:1009900061110DC0178A158A14A213A2108E10922D
:1009A0001D0710921C0710921B070C949C040895BD
:1009B0001F920F920FB60F9211242F933F934F93D4
:1009C0005F936F937F938F939F93AF93BF93EF93B7
:1009D000FF9360911C07662321F180910F058F5FC3
:1009E00080930F05909115058917D8F090911B07FA
:1009F00081E0892780931B0710920F0580911605CF
:100A0000882369F08091000193E4899F802D11244F
:100A1000895B809300010E94451A90931D070E94F4
:100A20009C04FF91EF91BF91AF919F918F917F9126
:100A30006F915F914F913F912F910F900FBE0F904B
:100A40001F901895FC01643508F053C0403308F03E
:100A500050C090A1742F759575957595262F062E0B
:100A6000000C330B542F57709230A1F4F901E55E5E
:100A7000FA4F84E57802E00DF11D1124808190E0A9
:100A8000052E02C0959587950A94E2F78095982FD8
:100A900091700AC0933041F4848581704627409557
:100AA0004170841303C014C0911112C084E5780210
:100AB000200D311D1124F901E55EFA4F81E090E02F
:100AC00001C0880F5A95EAF780959081892310C05C
:100AD00084E57802200D311D1124F901E55EFA4FFD
:100AE00081E090E001C0880F5A95EAF79081892B48
:100AF00080830895DF92EF92FF920F931F93CF931D
:100B0000DF931F92CDB7DEB78C01D62EF42EE12CE9
:100B1000E21654F46E2D6D0D4F2DC80129830E94ED
:100B20002205E3942981F4CF0F90DF91CF911F919B
:100B30000F91FF90EF90DF900895DF92EF92FF9278
:100B40000F931F93CF93DF937C01D62FD22EC42F08
:100B5000002E000C110B040F111D47FD1A954C2F90
:100B60000C2E000C550B4017510744F42D2D4C2F23
:100B70006D2FC7010E947A05CF5FF1CFDF91CF9132
:100B80001F910F91FF90EF90DF9008956F927F92E9
:100B90008F929F92AF92BF92CF92DF92EF92FF928D
:100BA0000F931F93CF93DF93EC016A3019F42D81DB
:100BB0009885A1C06D3009F4A4C01885BA84D98481
:100BC00088A083E58D150CF47FC08FE28B150CF4A3
:100BD0007BC08C8190E00197189F9001199F300D88
:100BE0001124C9018D0D911DD7FC9A95181619066F
:100BF0000CF06AC08D81819FC00111248B0D911D65
:100C0000B7FC9A95181619060CF05EC09D2CCD2CD9
:100C1000E62EF12CEC2DED190E2E000CFF0B8C8125
:100C200090E0E817F9070CF04EC00197E817F907B4
:100C300079F0E89E9001E99E300DF89E300D112468
:100C4000E20FF31F8E8D9F8DE80FF91F749001C086
:100C5000712C6B2CAB2C2A2D2B19022E000C330B74
:100C60008D8190E0281739075CF570FE10C01130B7
:100C700031F44A2D6C2DCE010E9422051DC0012F9A
:100C8000212F462D692DCE010E949D0515C089A1F9
:100C900098A1891789F088A3113031F44A2D6C2D61
:100CA000CE010E94220507C0012F212F462D692D5C
:100CB000CE010E949D0588A27694A394610ECBCFAD
:100CC000C394910EA7CF88A228853C818985329F45
:100CD000800D112489879F81992399F0082E000C9B
:100CE000990B44E550E0239F4019510911244817FE
:100CF00059073CF49D818A85299F800D11248A879C
:100D0000198681E090E0DF91CF911F910F91FF90C4
:100D1000EF90DF90CF90BF90AF909F908F907F909B
:100D20006F900895DF92EF92FF920F931F93CF93EE
:100D3000DF931F92CDB7DEB78C01D62EF42EE12CB7
:100D4000E21654F44E2D4F0D6D2DC80129830E94DB
:100D50002205E3942981F4CF0F90DF91CF911F9169
:100D60000F91FF90EF90DF9008953091CA0450E00A
:100D7000639F400D511D1124FA0133E0F595E7956D
:100D80003A95E1F747705527E80FF91F222369F0DC
:100D900027E030E0241B350B81E090E001C0880F94
:100DA0002A95EAF79081892B0DC027E030E0241BBB
:100DB000350B81E090E001C0880F2A95EAF7809515
:100DC00090818923808308952091CA0450E0629F16
:100DD000400D511D11249A0163E0359527956A95C0
:100DE000E1F7820F931FFC01808190E040955095C0
:100DF0004770552702C0959587954A95E2F781700F
:100E00000895EF92FF920F931F93CF93DF93182FC4
:100E1000062F20E0462F682F85E592E00E94B50658
:100E2000E02EF12C8091CA0490E00297C12FD0E00F
:100E3000E816F9064CF441E0400F612F85E592E099
:100E40000E94E406811133C0002349F04FEF400FA8
:100E5000612F85E592E00E94E406811132C0809105
:100E6000C70490E00297C817D9074CF4402F61E0FF
:100E7000610F85E592E00E94E40681112CC01123E8
:100E800099F16FEF610F402F85E592E00E94E40633
:100E9000882351F121979C2F88278E0D9F1DDF916C
:100EA000CF911F910F91FF90EF900C94C1029C2F56
:100EB000882797012F5F3F4F820F931F0E94C10227
:100EC000C3CF9C2F8827970121503109820F931F90
:100ED0000E94C102C4CFCE010196982F88278E0DA3
:100EE0009F1D0E94C102CBCFDF91CF911F910F9127
:100EF000FF90EF9008954F925F926F927F928F9242
:100F00009F92AF92BF92CF92DF92EF92FF920F9398
:100F10001F93CF93DF938093CA046093C704EEE8D6
:100F2000F3E08FEF94E0E73CF90711F08193FACFFB
:100F3000ECE1F1E08FEF92E0E535F90711F08193F4
:100F4000FACFE5E5F2E08FEF93E0EE38F90711F024
:100F50008193FACF10920E0560E080E00E940107B5
:100F600034E0432E512C612C712CC0910E05CC2302
:100F700009F48EC00E949A182C2F30E040E050E017
:100F80000E94A818660F771FDB01AE52BB4F0D9170
:100F90001C91119780910E05E82FF0E0EE0FFF1FD6
:100FA000E053FB4F208131812D933C9381508093FE
:100FB0000E05C12FDD27EC2EF02E88248A948C0E8E
:100FC000DD24D394DC0E99249A94900E5801BB240E
:100FD000CC24C394C00E0E949A18A30192010E94CF
:100FE000A8186130710581059105F1F02CF4672B8B
:100FF000682B692B61F0EFCF623071058105910597
:1010000029F1633071058105910571F1E4CFFF206D
:1010100011F3492D6E2D85E592E00E94E4068111C1
:10102000DACF20E0402F6DC08091CA0490E0029793
:10103000A816B90684F64C2D6E2D85E592E00E9427
:10104000E4068111C8CF20E04C2D5BC0209719F237
:101050004F2D682D85E592E00E94E4068111BBCFFB
:1010600020E0402F6C2F51C08091C70490E0029780
:10107000C817D9070CF0AFCF4F2D6D2D85E592E045
:101080000E94E4068111A7CF20E0402F6D2D3DC0C6
:1010900020E040E060E08EE893E00E94B5064091D9
:1010A000CA0442506091C704615020E08EE893E08A
:1010B0000E94B5061092CE041092CD041092D00476
:1010C0001092CF041092C9041092C8041092CC045C
:1010D0001092CB0421E040E060E085E592E0DF91F2
:1010E000CF911F910F91FF90EF90DF90CF90BF9025
:1010F000AF909F908F907F906F905F904F900C94E7
:10110000B5066C2F8CE191E002C08EE893E00E945E
:10111000B506602F8C2F0E94010780910E0581116A
:1011200024CFC0E08C2F90E02091C70430E0215004
:101130003109821793070CF018CFD0E02D2F30E043
:101140008091CA0490E001972817390774F44D2F55
:101150006C2F85E592E00E94E406811104C06D2F9A
:101160008C2F0E940107DF5FE9CFCF5FDBCFCF92EB
:10117000DF92EF92FF920F931F93CF93DF938091B3
:101180008E07882309F4B6C081E08093740710921B
:101190007307109272071092360780938C07809322
:1011A0008D07CBE4D2E01CE00E9490098823E1F394
:1011B000FE018491882319F00091710701C000E0BD
:1011C00069EB70E080E00E94451169E271E08CE01B
:1011D000800F0E94451110927507109376078BE4DB
:1011E00092E00E94CF0E80917007982F990F890F7F
:1011F00081958D5A8093750780917107982F990F6B
:10120000890F8195835D8093760780918F0784FF96
:1012100003C085EB90E002C081EB90E00E94F00EED
:1012200080917007982F990F890F81958D5A80931F
:101230007507809176078F5F8093760780914807C6
:10124000882319F08DEA90E002C089EA90E00E94BC
:10125000F00E80917007982F990F890F81958D5A04
:1012600080937507809176078F5F8093760785EA74
:1012700090E00E94F00E809134078130A1F48091BB
:1012800048078F5F6091490787FD09C0082E000C51
:10129000990B70E06F5F7F4F0E94511A682F609327
:1012A00048070E94F50D809133078130A9F08091A5
:1012B0008E07482F50E060E070E0C0908F07D0901C
:1012C0009007E0909107F0909207C416D506E606C5
:1012D000F706F0F08F3FE1F08FEF80938E0760E02C
:1012E00083E497E00E94C7041092440783E497E0E8
:1012F0000E94A704109236076AE08AE0DF91CF913E
:101300001F910F91FF90EF90DF90CF900C947B078F
:1013100080913507813009F047CF0E94FE0E44CFFF
:101320004F925F926F927F928F929F92AF92BF92F5
:10133000CF92DF92EF92FF920F931F93CF93DF93A1
:1013400000D000D01F92CDB7DEB740919E075091DC
:101350009F076091A0077091A1072FB7F894809123
:10136000170590911805A0911905B0911A052FBF86
:10137000481B590B6A0B7B0B80919D0790E0A0E006
:10138000B0E00091990710919A0720919B07309146
:101390009C0784179507A607B70730F401151105B8
:1013A0002105310509F027C3012B022B032B09F07E
:1013B00020C38091350781508E3F08F58091340716
:1013C000813011F5809148078F5F6091490787FD53
:1013D00009C0082E000C990B70E06F5F7F4F0E94D0
:1013E000511A682F6093480785E394E09093A30710
:1013F0008093A20788E48093A4070E94F50D809152
:10140000350781508E3F70F480913307813009F0A9
:101410009EC388E294E09093A3078093A20788E498
:101420008093A40780E00E94330F809144078823B3
:1014300009F4ADC0809158078111A9C0809150076F
:1014400090915107E0915507F0915607EE0FFF1F5D
:10145000E80FF91F459154914115510501F520916F
:101460005407222331F01092560710925507FC01C1
:1014700014C01092440780914307882341F080E014
:101480000E94330FE0915507F09156072FC060E09E
:1014900083E497E00E94C7047AC0459154919A0171
:1014A000369527953695279540FF51C0CA0116E01D
:1014B000969587951A95E1F78F71952F9695969544
:1014C000969590512F70223071F1F8F4211117C0C8
:1014D0008B3008F08AE080935907E0915507F0912E
:1014E00056073196F0935607E0935507EE0FFF1F0E
:1014F0008091500790915107E80FF91FCECF21300E
:1015000061F760E00E94A00FE8CF2330B1F02430F3
:1015100021F720914707829F802D11248093600737
:1015200090936107DACF20914707829F802D112485
:1015300080935C0790935D07D0CF20914707829FEF
:10154000802D112480935E0790935F07C6CF2F7381
:101550002093570780914707859F802D1124809302
:10156000580710926807109267071092660781E08B
:1015700080935A0780931B0710925B078091550751
:101580009091560701969093560780935507809146
:101590005A07882309F4F3C080915807811106C0C7
:1015A00060E083E497E00E94C704E9C08150809323
:1015B000580780916807811148C0209166073091D3
:1015C00067072F5F3F4FC901880F991FE09162079E
:1015D000F0916307E80FF91F65917491862F87706A
:1015E00080936907AB01E3E056954795EA95E1F7EB
:1015F000CA0196958795972F9695969590936A0729
:101600008F7390914707899F802D112480936807DD
:1016100041704093160530936707209366078091C9
:10162000640790E02817390780F02091650722238E
:1016300039F0821B9109909367078093660705C074
:1016400060E083E497E00E94C704809168078150BE
:101650008093680780915B0721E0280F20935B0748
:101660004091570730916A07340F80914F07380F28
:101670003093450760915E07662371F070E0822F1A
:10168000022E000C990B0E94511A80915F07869FD1
:10169000300D1124309345078091450790E08496E2
:1016A00064E270E00E94511A809345073091590717
:1016B0003093460760915C07662381F0062E000C8C
:1016C000770B822F022E000C990B0E94511A8091E9
:1016D0005D07869F300D11243093460760916007A7
:1016E0006623A1F0822F220F990B70E00E94511AFD
:1016F000CB0162E070E00E94511A20916107909145
:101700004607289F900D1124909346078091460725
:101710004F3341F08A300CF089E087FD80E0809300
:10172000460702C010924607F894E0914507F0E0A2
:10173000EC5AFD4FE491E093150530914607209156
:101740006B07320390011124409169074203C001E5
:10175000439F900D11240090480702C0880F991FE5
:101760000A94E2F797FF02C081589F4F880F892F94
:10177000881F990B80931C0780931D077894809194
:10178000A407882309F486C08C3020F49CE0E92E5D
:10179000E81A01C0E12CFF24F394F0927407109230
:1017A0008C0710928D07309171074DE2D42E1D2DBC
:1017B000131B1E0D03E0030F2EE4412F63E08CE6A4
:1017C00097E03D830E949D053D810CEF030F1D5F57
:1017D000202F41E0612F80E50E945910202F42E028
:1017E000612F83E00E945910F0928C07F0928D07D0
:1017F00000917107FD2CF01AFE0C2EE44F2D63E0D2
:101800008CE697E00E947A0513E0100F1F0D4FEF52
:10181000410F2EE463E08CE697E00E947A050350C6
:1018200033E0F30E202F4F2D60E08CE697E00E940E
:101830009206202F4F2D63E58CE697E00E949206DA
:1018400041E06F2D83E00E94DB0F42E06F2D80E5C9
:101850000E94DB0F145044E0612F80E50E94DB0FF3
:1018600048E0612F83E00E94DB0F84E080937507DE
:1018700080917107E81A8E2D815D809376078091A3
:10188000A2079091A3070E94CF0E8091A4078150D8
:101890008093A40780913A0790913B07892B09F424
:1018A00080C011E010938C0710928D079091700703
:1018B00085E5891B8093750710927607809137071D
:1018C000813009F451C030F090913607853008F02E
:1018D00063C05EC060E083E497E00E94C70410929A
:1018E000440710937407E6EAF2E0E491EF5FE093B7
:1018F0007007E7EAF2E0E491EF5FE093710788EAAE
:1019000092E090938B0780938A0710923B07109286
:101910003A071092720718EA0E9490098823E1F3AF
:1019200088E992E00E94CF0E6091380770913907E4
:1019300080E090E04AE00E94BC1083E892E00E94C0
:10194000CF0E612F62956F7070E080E090E04AE00A
:101950000E94BC1088E792E00E94CF0E809133076E
:10196000813009F0FAC01DC080918F0790919007D7
:10197000A0919107B09192078F709927AA27BB2752
:101980000897A105B10510F487E009C088E707C0F2
:10199000992339F08B5F03C0992319F08FE20E94DD
:1019A000FD100E948F0E8091720781110EC088EF8A
:1019B00091E0EBE1F5E0DF019C011D922150304008
:1019C000E1F710927507109276070E94F303609377
:1019D000990770939A0780939B0790939C07209197
:1019E000950730919607621B730B70939407609371
:1019F000930780E0CCC02FB7F894809117059091A1
:101A00001805A0911905B0911A052FBF20919D07C7
:101A1000820F911DA11DB11D80939E0790939F077A
:101A2000A093A007B093A10780918F079091900792
:101A3000A0919107B09192070196A11DB11D8093CD
:101A40008F0790939007A0939107B09392071092FD
:101A5000990710929A0710929B0710929C070E9478
:101A6000F30360939507709396078093970790937D
:101A7000980780911F07909120072FE0289F8001F1
:101A8000299F100D112485E10E94DC03800F911F16
:101A900024E0969587952A95E1F790932007809307
:101AA0001F0720911E07222309F44BC060912207D3
:101AB000262F30E040E050E029833A834B835C835B
:101AC000C0902307D12CE12CF12C40912607509196
:101AD00027074A01A12CB12C20912407309125071A
:101AE0002901612C712C8217930728F09C0148175B
:101AF000590708F49A01C901A0E0B0E09C01AD01CA
:101B0000241935094609570969817A818B819C819D
:101B10006C197D098E099F090E94351AA50194014F
:101B200024193509460957090E94A818C20ED31E68
:101B3000E41EF51EC09221076C2D70E085E00E9426
:101B40007D030E941C0E0E94081181E020C0893292
:101B500009F068CC0E94FE0E65CC115009F0DCCE75
:101B600060E070E085E00E947D0383B7817F846040
:101B700083BF83B7816083BF83B7816083BF88954C
:101B800083B78E7F83BF83B78E7F83BFC5CE0F9011
:101B90000F900F900F900F90DF91CF911F910F91A9
:101BA000FF90EF90DF90CF90BF90AF909F908F907D
:101BB0007F906F905F904F900895BC01009791F0D7
:101BC000FC0101900020E9F73197AF01481B590B48
:101BD000E0916C07F0916D070280F381E02D8CE6B7
:101BE00097E0099480E090E00895CF93DF93CEE1F1
:101BF000D7E01CAE1AAE10926707109266071092DB
:101C00005B0710921D0710921C0710921B070E9481
:101C10009C048FEC94E09BAB8AAB18AE1FAA81E0CA
:101C20008EA389E08BAF10925C0710925E07109232
:101C30006007DF91CF910895CF92DF92EF92FF92EC
:101C40000F931F93CF93DF93C8E2D7E00FE217E023
:101C5000FF24FA9497E0E92EE00E62E088810E946A
:101C60004103288130E0F901E554FB4F8491F901EB
:101C7000E955FB4FC490F901ED56FB4FD490DD20A0
:101C800071F081110E94E802ED2DF0E0EE0FFF1FD0
:101C9000E757FB4FA591B491EC91EC21B1F4F80119
:101CA00080818F5F808360E088810E94410321965C
:101CB0000F5F1F4FE012D1CFDF91CF911F910F9196
:101CC000FF90EF90DF90CF900895F80180818823F6
:101CD00071F3F8018F3F11F41082E5CFF082E3CF6A
:101CE000CF93C82FF89460E080917B070E94110386
:101CF00080917C0718161CF460E00E941103CEBD91
:101D000000000DB407FEFDCF8EB580917C0718163C
:101D10001CF461E00E9411037894CF9108950F9311
:101D20001F93CF93809178078F5F809378070BE1A3
:101D300015E0C0E08C2F80640E94700E80E80E9445
:101D4000700E61E080917B070E94110380917C07F7
:101D500018161CF460E00E94110380E090E0F80186
:101D6000E80FF91F20812EBD00000DB407FEFDCF46
:101D70002EB501968435910591F780917C07181650
:101D80001CF461E00E941103CF5F0C5A1F4FC63054
:101D900089F680E4CF911F910F910C94700E0F93F0
:101DA0001F93CF93DF938C01C0E0D0E0F801EC0FDC
:101DB000FD1F6491662371F0E0916C07F0916D074F
:101DC0000190F081E02D8CE697E00995892B11F0C8
:101DD0002196ECCFCE01DF91CF911F910F91089505
:101DE000CF93DF930E94CF0EEC0181E191E00E943E
:101DF000DD0D8C0F9D1FDF91CF91089588EF91E04D
:101E0000EBE1F5E0DF019C011D9221503040E1F74C
:101E1000109275071092760781E694E00E94CF0E2B
:101E20000E948F0E8CB583608CBD8DB58E7F8DBD6D
:101E300084E191E0EEEFFFE30995109272078CE3E5
:101E400094E00E94F00E0E948F0E0E941C0E809162
:101E50003307813039F062E370E080E090E00E9467
:101E60001804F3CF0895AF92BF92CF92DF92EF9212
:101E7000FF920F931F93CF93DF93C82ED12CE601CF
:101E8000C25ED84F9DA1992309F44FC07E019FEFF8
:101E9000E91AF90AF70195A1911147C09EA586019B
:101EA000000F111F025E184FF80134A525A5E32F7E
:101EB000F22FE90FF11DE90FF11D259134912F3F0C
:101EC000FFEF3F0711F41DA230C039ABF601EE0F52
:101ED000FF1FE85DF84F3327220F331F05A0F6A13F
:101EE000E02DE20FF31FA590B49081111AC060E0BD
:101EF00083E497E00E94C704F801B3AAA2AAF601FE
:101F0000EE0FFF1FE05DF84F16A215A281E0F7016A
:101F100085A389E08BAF1EAEFE017B9615A232969B
:101F200015A229968DA18F5F8DA3DF91CF911F916F
:101F30000F91FF90EF90DF90CF90BF90AF900895FA
:101F400070E0DB01AA0FBB1FA25EB84FD4962C91A4
:101F5000D497D5969C91D597E22FF92FE80FF11DD4
:101F6000E80FF11D259134915F9696963C932E9340
:101F70009597F9018591949190914707989F802DAD
:101F80001124625E784FFB01B19685A3F901A591FA
:101F9000B4914B2F50E0E82FF0E04E175F0720F48C
:101FA000F90125913491832FFB01B296899F802DF1
:101FB000112485A30895AF92BF92CF92DF92EF9242
:101FC000FF920F931F93CF93DF93182F062FC1E03B
:101FD000D3E08AEFD82E9EEFE92E842F8470C82E8E
:101FE000842F8270B82E842F8870A82E4170F42E12
:101FF0008C2F880F8F5FE80ECC2081F04D2F400F83
:102000006C2F610F8CE697E00E9422054C2F400F49
:102010006D2F610F8CE697E00E942205BB2081F0B6
:10202000402F4D1B6C2F610F8CE697E00E9422051C
:10203000402F4C1B6D2F610F8CE697E00E9422050C
:10204000AA2081F04C2F400F612F6D1B8CE697E08A
:102050000E9422054D2F400F612F6C1B8CE697E0EC
:102060000E942205FF2081F0402F4C1B612F6D1B29
:102070008CE697E00E942205402F4D1B612F6C1BC0
:102080008CE697E00E942205CD1744F4E7FC04C0DB
:10209000D150D394D394ED0CCF5FAACFDF91CF91E1
:1020A0001F910F91FF90EF90DF90CF90BF90AF9076
:1020B00008959F92AF92BF92CF92DF92EF92FF92DC
:1020C0000F931F93CF93DF93F82EE62EB22E03E0EB
:1020D000020FD0E0C3E08AEFC82E1EEF842F81707C
:1020E000982EAA24A394A20E4270D42EDF5F802FD4
:1020F0008B19180F9920A1F02C2F220F2A0D4E2D8D
:102100004C1B6D2F6F0D8CE697E00E949206202FDE
:102110004E2D4D1B6C2F6F0D8CE697E00E949206A2
:10212000DD20A1F02C2F220F2A0D4E2D4C1B6F2DE0
:102130006D1B8CE697E00E949206202F4E2D4D1BC2
:102140006F2D6C1B8CE697E00E949206DC1744F41E
:1021500017FD04C0C150C394C3941C0D0E5FC6CFBD
:10216000DF91CF911F910F91FF90EF90DF90CF9073
:10217000BF90AF909F9008958F929F92AF92BF9221
:102180000F931F93CF93DF93CDB7DEB7A1970FB611
:10219000F894DEBF0FBECDBF19A2423008F44AE06A
:1021A0008E010F5D1F4F842E912CA12CB12CA50107
:1021B00094010E94DA18E62FB901CA0101501109F1
:1021C000EA3014F4E05D01C0E95CD801EC93232B04
:1021D000242B252B61F7C8010E94DD0DA1960FB6B7
:1021E000F894DEBF0FBECDBFDF91CF911F910F914D
:1021F000BF90AF909F908F900895E0916C07F09101
:102200006D070190F081E02D682F8CE697E009942E
:1022100080913A0790913B07892BB1F18091420759
:102220008F7169F584E10E94DC03BC01990F880B72
:10223000990B0E943C1926EE3FE34EEC50E40E94BD
:10224000A0190E940B199B017093390760933807FE
:10225000672B91F084E080933707EAE3F7E080E0B2
:10226000419151912417350718F480933707089549
:102270008F5F8430A9F703C08FEF80933707809179
:1022800042078F5F8093420708958F929F92AF928B
:10229000BF92CF92DF92EF92FF920F931F93CF9353
:1022A000DF93FB0124913196C490F0908C07022EAD
:1022B000000C330B121613060CF0D7C080330CF051
:1022C000D4C0482F082E000C550BFA01EC0DF11D5F
:1022D000C7FCFA951E161F060CF0C7C06E5F7F4F35
:1022E000D901179693E0B595A7959A95E1F787FFE1
:1022F0000BC0C80EA49FC001A59F900DB49F900D68
:102300001124681B790B80E04C2D0C2C000C550B14
:10231000480F511D87FD5A95413351051CF090E33C
:10232000C92EC81A2535310514F024E530E0109186
:1023300078071827982F977031E001C0330F9A95CE
:10234000EAF7859585958595F4E58F02C0011124FE
:10235000855E9A4F00E00C2C000CDD08BB24B39482
:10236000402F50E04C155D050CF07FC0FB01E49060
:10237000F1E0FF1218C0FB01EC0140E8542F5E2190
:1023800019F05881532B588350E0559547954115C6
:10239000510519F43196E49040E821965C2F581BC2
:1023A000521760F359C0F1101AC0A32EA094FB017C
:1023B000EC0140E8542F5E2119F058815A215883CE
:1023C00050E0559547954115510519F43196E49023
:1023D00040E821965C2F581B521760F33DC043E044
:1023E000F41223C0932E9094FB01EC0140E8A82E38
:1023F0008C2E881A542F5E2141F08126588180FE50
:1024000002C0532B01C05921588350E05595479580
:102410004115510519F43196E49040E821965C2F5E
:102420005A19521728F31B2517C0FB01EC0140E88D
:10243000542F5E2119F058815327588350E0559549
:1024400047954115510519F43196E49040E82196DD
:102450005C2F581B521760F3330F19F48C5A9F4F9F
:1024600031E00F5F6A0F7B1F7BCFDF91CF911F9110
:102470000F91FF90EF90DF90CF90BF90AF909F9023
:102480008F900895CF93DF93CDB7DEB762970FB6E5
:10249000F894DEBF0FBECDBF789484B5826084BD52
:1024A00084B5816084BD85B5826085BD85B5816058
:1024B00085BD80916E00816080936E0010928100D6
:1024C0008091810082608093810080918100816091
:1024D0008093810080918000816080938000809152
:1024E000B10084608093B1008091B00081608093DE
:1024F000B00080917A00846080937A0080917A00A5
:10250000826080937A0080917A00816080937A0063
:1025100080917A00806880937A001092C10082E3F3
:1025200080939D0781E090E0A0E0B0E08093990760
:1025300090939A07A0939B07B0939C078FEF80938B
:102540008E07E0E8F7E7259134912130304C09F00F
:1025500049C0E6E9F7E7E491E0937707E7E9F7E7B1
:10256000E491E0932207E8E9F7E7E491E093230799
:10257000E9E9F7E7859194919093250780932407E3
:10258000EBE9F7E7859194919093270780932607CD
:1025900088E080934907EEE9F7E7E491E093480784
:1025A000EFE9F7E7E491E0938E07E0EAF7E785913A
:1025B000949190933B0780933A07E2EAF7E785917D
:1025C000949190933D0780933C07E4EAF7E7859167
:1025D000949190933F0780933E07E6EAF7E7859151
:1025E00094912CC09CE390937707109222078093DC
:1025F000230780E293E0909325078093240784EDDE
:1026000093E0909327078093260788E080934907FB
:10261000809348078CEA9DE090933B0780933A07AC
:102620008EED9DE090933D0780933C0784E79EE00C
:1026300090933F0780933E078CE39FE09093410780
:102640008093400711E010931E076FEF70E085E064
:102650000E947D0388E08093280789E08093290702
:1026600087E080932A0786E080932B0704E000939D
:102670002C0782E080932D0781E180932E070E9432
:102680001C0E8CE39FE090933907809338070093EA
:102690003707109342078BE080937A078DE0809391
:1026A000790780E180937B078EE080937D078FE040
:1026B00080937C071093740710938C0710928D07FA
:1026C00010937307E6EAF2E0E491EF5FE09370079E
:1026D000E7EAF2E0E491EF5FE093710788EA92E0C5
:1026E00090938B0780938A071FB7F8948091D10449
:1026F000811127C0EDE9F4E08491E1EBF4E09491DD
:10270000E82FF0E0EE0FFF1FEC58FF4FA591B491BA
:10271000EC91E92321F461E08AE00E94110361E079
:102720008AE00E9441038CB580618CBD8CB58064C9
:102730008CBD61E08DE00E94410361E08BE00E946E
:1027400041038091D1048F5F8093D1041FBF8CB56A
:102750008F7D8CBD8CB58C7F81608CBD8DB581608B
:102760008DBD8CB58C608CBD61E080917A070E9434
:10277000410361E0809179070E94410361E080910B
:102780007B070E94410380917D0718161CF461E0CD
:102790000E94410380917C0718161CF461E00E949E
:1027A000410380917D07181674F460E00E941103C4
:1027B0006AE070E080E090E00E94180461E080919F
:1027C0007D070E94110380917907082E000C990B58
:1027D000FC01ED56FB4FE491F0E0EE0FFF1FE258D5
:1027E000FF4F259134913093810720938007FC019E
:1027F000E955FB4FE491E093870780917A07082E13
:10280000000C990BFC01ED56FB4FE491F0E0EE0F4C
:10281000FF1FE258FF4F2591349130937F0720939B
:102820007E07FC01E955FB4FE491E0938607809118
:102830007C07082E000C990BFC01ED56FB4FE49130
:10284000F0E0EE0FFF1FE258FF4F259134913093D7
:10285000830720938207FC01E955FB4FE491E09345
:10286000880780917B07082E000C990BFC01ED5620
:10287000FB4FE491F0E0EE0FFF1FE258FF4F259170
:1028800034913093850720938407FC01E955FB4F71
:10289000E491E093890781E20E94700E84E10E9436
:1028A000700E8091770787FF03C08FE780937707CB
:1028B0008091770780680E94700E80E20E94700EFF
:1028C0008CE00E94700E0E948F0E11E0109347075B
:1028D00084E080936B0780E790E0909353078093A8
:1028E000520760E080E00E94A00F61E070E083E0AA
:1028F0000E947D038091B100887F81608093B10048
:10290000F89410928000109281001092850010922D
:10291000840088E191E09093890080938800809101
:102920008100886080938100809181008160809324
:10293000810080916F00826080936F0078940E9484
:10294000081180913407813019F4109248071EC095
:10295000809137078823C9F360E083E497E00E9401
:10296000C70488E890E09093510780935007109235
:102970005607109255071093440789E08093590732
:1029800010925C0710925E0710926007C0903807A3
:10299000D0903907C094D094E12CF12C0E94F3031D
:1029A0004B015C010E94F303A50194012095309531
:1029B0004095509560957095809590950E94351A38
:1029C0009B01AC01C701B6010E94351A4B015C01A5
:1029D00080911F07909120076C01E12CF12C0E943F
:1029E000F303C60ED71EE81EF91EC701B601680D17
:1029F000791D8A1D9B1D611571058105910511F0D9
:102A00000E949F180E94B70811E00E949009882335
:102A100009F479C280913507813009F47CC2809134
:102A2000CF049091D004892B09F0ABC08091CD04E4
:102A30009091CE04892B09F0A4C00091CA04A02E65
:102A4000B12CC50102972091CB043091CC042817FA
:102A5000390769F5D090C704ED2CF12C970122506D
:102A600031094091C8045091C90442175307F9F441
:102A700086E990E09093A3078093A20798E490934F
:102A8000A40783E497E00E94A70428E2E216F10479
:102A90001CF46AE06D0D01C062E338E2A316B104D4
:102AA0001CF48AE0800F01C082E30E947B078091C2
:102AB000300781508E3F90F4E090C804F090C90434
:102AC0001E141F045CF40091CB04402F6E2D8EE881
:102AD00093E00E94E406882309F420C28091320723
:102AE00081508E3FC8F4C090C804D090C904809132
:102AF000C70490E00297C816D90674F40091CB047D
:102B0000FF24F394FC0C402F6F2D8EE893E00E947D
:102B1000E406882309F420C280912F0781508E3F5C
:102B200090F4E090CB04F090CC041E141F045CF4ED
:102B30000091C8044E2D602F8CE191E00E94E406C4
:102B4000882309F428C28091310781508E3FC8F450
:102B5000C090CB04D090CC048091CA0490E002973E
:102B6000C816D90674F4FF24F394FC0C0091C80431
:102B70004F2D602F8CE191E00E94E406882309F438
:102B80002EC210938C0710938D072091C8043091AA
:102B9000C9043A8B298B263031052CF0590136E0D7
:102BA000A31AB10802C0A12CB12C950149895A89F8
:102BB000241B350B56E0529FC001539F900D1124EA
:102BC000212C312C29893A892B5F3F4F3D872C8757
:102BD000AC014C5E5F4F5F874E87C090C704D12C1D
:102BE000AC14BD044CF0E090CF04F090D0041E145F
:102BF0001F040CF4D2C0E9C08C859D858A159B0505
:102C000094F38091CB049091CC04893091052CF001
:102C10007C0159E0E51AF10802C0E12CF12C2E8567
:102C20003F85220D331D3E832D83A701481B590B81
:102C300066E0649F9001659F300D1124412C512C5A
:102C4000AC01485F5F4F58874F83C90186969A87CA
:102C500089879A2C9601215031093C832B833FEFC1
:102C60003A0D3B878091CA0490E0E816F9060CF013
:102C70008DC04F8158854E155F050CF487C0C090FC
:102C8000CF04D090D00429853A85240D351DC20E7D
:102C9000D31E6090CD047090CE044D815E81640E91
:102CA000751E0197E816F9060CF055C08E2C4E2DB6
:102CB000692D8EE893E00E94E406882339F027E02E
:102CC000462D6C2D8CE697E00E947A058B819C81C5
:102CD000A816B9060CF03FC0482D692D85E592E095
:102CE0000E94E4068823B9F132E0360D398352E0C0
:102CF0005C0D5A8303E023E0432F652F8CE697E0B9
:102D00000E949D051A141B048CF4482D6B8585E5E3
:102D100092E00E94E406882349F0482D692D8EE850
:102D200093E00E94E406882309F476C11E141F0470
:102D300094F44FEF480D692D85E592E00E94E4067A
:102D4000882349F0482D692D8CE191E00E94E4062A
:102D5000882309F46BC18B819C81A816B9067CF489
:102D60004E2D692D8CE191E00E94E406882339F014
:102D700027E0462D6C2D8CE697E00E9492069FEF8F
:102D8000E91AF90A26E0420E511C6CCF5FEFA51A32
:102D9000B50A66E0260E311C20CF4091CB0450913D
:102DA000CC0414161506ACF54150698985E592E00E
:102DB0000E94E406882369F110928C0710928D0717
:102DC00003E02E2D46E16BE22CC0E114F10469F121
:102DD0004091CB045091CC048091CA0490E00297BA
:102DE0002E2D2195481759070CF02AC14F5F69898C
:102DF00085E592E0288B0E94E4062889882309F45F
:102E00001FC110928C0710928D0703E046E168E223
:102E10001EC110938C0710938D0703E02E2D46E101
:102E200068E28CE697E00E949D05A090CD04B090EA
:102E3000CE041A141B04CCF429893A8912161306FD
:102E40000CF007C1622F61504091CB0485E592E000
:102E50000E94E406882309F4FCC010928C071092AB
:102E60008D070A2D23E049E1FBC0A114B10409F448
:102E700005C132E0C31AD1080A2D019549895A8942
:102E80004C155D058CF4642F6F5F4091CB0485E594
:102E900092E00E94E406882339F010928C07109289
:102EA0008D0723E046E106C010938C0710938D0731
:102EB00023E049E14A0D68E28CE697E00E949D0517
:102EC000F7FED4C05FEFE51AF50AF092D004E09265
:102ED000CF04B7FCCBC08091CF049091D0041816DA
:102EE00019062CF401979093D0048093CF0480911D
:102EF000CD049091CE04181619062CF401979093E6
:102F0000CE048093CD0480E090E0892B09F47DCD40
:102F10000E94000079CD0E94B70881CD402F6FEF4D
:102F20006E0D85E592E00E94E406882339F020E0EA
:102F3000402F6E2D85E592E00E94B506B7016150E5
:102F400071097093C9046093C8044AEF5FEF50930E
:102F5000CE044093CD041CC0402F6F2D85E592E038
:102F60000E94E406882339F020E0402F6C2D85E58F
:102F700092E00E94B506B6016F5F7F4F7093C9045F
:102F80006093C80486E090E09093CE048093CD04D3
:102F900021E0402F1FC04FEF4E0D602F85E592E0DE
:102FA0000E94E406882339F020E04E2D602F85E54D
:102FB00092E00E94B506A701415051095093CC04FC
:102FC0004093CB042AEF3FEF3093D0042093CF04FB
:102FD00021E0602F85E592E00E94B506D2CD4F2D0D
:102FE000602F85E592E00E94E406882339F020E016
:102FF0004C2D602F85E592E00E94B506A6014F5F3B
:103000005F4F5093CC044093CB0486E090E09093C4
:10301000D0048093CF04DCCF03E023E04FEF460DD4
:103020006A818CE697E00E949D0580CE03E023E054
:1030300049816FEF6C0D8CE697E00E949D058BCE69
:1030400010938C0710938D0703E046E16BE26E0D41
:10305000E8CE10938C0710938D070A2D23E046E1EC
:1030600068E28CE697E00E949D0508C06FEFA61A03
:10307000B60AB092CE04A092CD042DCFF7FE2BCF8E
:1030800021CF10926F0710926E0789E091E0909324
:103090006D0780936C0708958F929F92AF92BF92B5
:1030A000CF92DF92EF92FF92CF93DF93EC01688192
:1030B00079818A819B81611571058105910521F4D2
:1030C00064E279ED8BE597E02DE133EF41E050E0EC
:1030D0000E94A81849015A019B01AC01A7EAB1E47A
:1030E0000E94C7186B017C01ACEEB4EFA5019401FE
:1030F0000E94D518DC01CB018C0D9D1DAE1DBF1D9E
:10310000B7FF03C00197A109B04888839983AA83B8
:10311000BB83BC01CD019F77DF91CF91FF90EF90F2
:10312000DF90CF90BF90AF909F908F9008950E94B6
:103130004C18089581E091E00E944C180895609326
:10314000010170930201809303019093040108959B
:10315000052E97FB1EF400940E94BF1857FD07D060
:103160000E94DA1807FC03D04EF40C94BF18509557
:103170004095309521953F4F4F4F5F4F0895909563
:103180008095709561957F4F8F4F9F4F08950E9456
:10319000FC18A59F900DB49F900DA49F800D911DCC
:1031A00011240895B7FF0C94C7180E94C718821BFA
:1031B000930B0895A1E21A2EAA1BBB1BFD010DC0A3
:1031C000AA1FBB1FEE1FFF1FA217B307E407F507D7
:1031D00020F0A21BB30BE40BF50B661F771F881FB3
:1031E000991F1A9469F760957095809590959B0149
:1031F000AC01BD01CF010895A29FB001B39FC001F2
:10320000A39F700D811D1124911DB29F700D811D12
:103210001124911D08950E947F1988F09F5798F0FE
:10322000B92F9927B751B0F0E1F0660F771F881FCB
:10323000991F1AF0BA95C9F714C0B13091F00E94E5
:103240009919B1E008950C949919672F782F882760
:10325000B85F39F0B93FCCF3869577956795B3950C
:10326000D9F73EF490958095709561957F4F8F4F7B
:103270009F4F0895E89409C097FB3EF49095809580
:10328000709561957F4F8F4F9F4F9923A9F0F92F2C
:1032900096E9BB279395F695879577956795B795AA
:1032A000F111F8CFFAF4BB0F11F460FF1BC06F5F90
:1032B0007F4F8F4F9F4F16C0882311F096E911C0A2
:1032C000772321F09EE8872F762F05C0662371F0C3
:1032D00096E8862F70E060E02AF09A95660F771FD7
:1032E000881FDAF7880F9695879597F9089557FD07
:1032F0009058440F551F59F05F3F71F04795880F64
:1033000097FB991F61F09F3F79F0879508951216FA
:1033100013061406551FF2CF4695F1DF08C01616A6
:1033200017061806991FF1CF869571056105089457
:103330000895E894BB2766277727CB0197F908956E
:103340000E94B3190C94241A0E94161A38F00E9495
:103350001D1A20F0952311F00C940D1A0C94131AD9
:1033600011240C949A190E94771970F3959FC1F358
:10337000950F50E0551F629FF001729FBB27F00D23
:10338000B11D639FAA27F00DB11DAA1F649F662778
:10339000B00DA11D661F829F2227B00DA11D621FC7
:1033A000739FB00DA11D621F839FA00D611D221F81
:1033B000749F3327A00D611D231F849F600D211D65
:1033C000822F762F6A2F11249F5750409AF0F1F0E8
:1033D00088234AF0EE0FFF1FBB1F661F771F881F51
:1033E00091505040A9F79E3F510580F00C940D1A62
:1033F0000C949A195F3FE4F3983ED4F38695779541
:103400006795B795F795E7959F5FC1F7FE2B880FF6
:10341000911D9695879597F9089597F99F6780E88C
:1034200070E060E008959FEF80EC089500240A9416
:103430001616170618060906089500240A9412168F
:103440001306140605060895092E0394000C11F4C2
:10345000882352F0BB0F40F4BF2B11F460FF04C06F
:103460006F5F7F4F8F4F9F4F0895DB018F939F9327
:103470000E94C718BF91AF91A29F800D911DA39F7D
:10348000900DB29F900D11240895991B79E004C00E
:10349000991F961708F0961B881F7A95C9F7809593
:1034A000089597FB072E16F4009407D077FD09D0F6
:1034B0000E94651A07FC05D03EF4909581959F4FB8
:1034C0000895709561957F4F0895AA1BBB1B51E12C
:1034D00007C0AA1FBB1FA617B70710F0A61BB70B84
:1034E000881F991F5A95A9F780959095BC01CD0129
:1034F0000895EE0FFF1F0590F491E02D099481E0EF
:0C35000090E0F8940C94841AF894FFCF2B
:10350C00010100000000000000C6059602E302E283
:0C351C00020D0A004C4F414445520000D3
:00000001FF
